:020000020000FC
:0600000012C057C079C0D8
:04001000A3C095C034
:100024009EC00FE50DBF02E00EBF33270DD01ED0DA
:10003400FF2740E6E42F11E0109515BB10950081D1
:100044000BBB00000000FDCF0FEF0ABB08BB04BBD5
:1000540002BB02E003BF02E00EBD01E009BF21ECD8
:100064000AE005BF00EE0BBF78940895F1E0E4E7E1
:10007400DD27C0E605910993C836E1F7F1E0ECE726
:1000840005910993C037E1F7F1E0E4E8059109939C
:10009400C837E1F7F1E0ECE805910993C038E1F7DE
:1000A400F1E0E4E905910993C838E1F70895F1E036
:1000B400ECE9DD27C0E605910993C836E1F7F1E0E4
:1000C400E4EA05910993C037E1F7F1E0ECE8059122
:1000D4000993C837E1F7F1E0E4EB05910993C038DF
:1000E400E1F7F1E0ECEA05910993C838E1F7FF275D
:1000F400E42F1895F1E0E4E9DD27C0E605910993C2
:10010400C836E1F7F1E0ECE905910993C037E1F76E
:10011400F1E0ECEB05910993C837E1F7F1E0E4EC89
:1001240005910993C038E1F7F1E0E4EC05910993F6
:10013400C838E1F7FF27E42F189522BF3BBBE395AE
:10014400110F11F411E0E42F109515BB10950081E7
:100154000BBB18954395483809F440E618950F935E
:100164001F9309B714E0012709BF1F910F91189538
:10017400004C929292929264007E80808080807E75
:1001840000FE0408102040FE00FE92929292928299
:1001940000FE0408100804FE00F82422222224F899
:1001A40000FC12123272D28C00008282FE82820023
:1001B40000FE80808080808000020408F008040231
:0801C400C0C000C0C000C0C0B3
:00000001FF
