:020000020000FC
:060000001FC078C082C0A1
:1000400011240FE50DBF02E00EBF0FEF0ABB0FEF4B
:1000500004BB8A988B98929A939A0AE005BF00ECA9
:100060000BBF1127222733274427AA2778943F065E
:100070005B4F666D7D077F6F1AD04423E9F300C0A4
:100080001127222714D0AA2311F011D0FCCF26D09B
:1000900013951A3011F411272395022F8AE0089F37
:1000A000010E902D1124931769F360F3E9CF022F0D
:1000B00007D00BBB0FD0012F03D005BB0BD0089589
:1000C000FF93EF93F0E0EEE6E00FF11D0491EF9166
:1000D000FF91089500E50A95F1F708955AE003D0DD
:1000E0005A95E9F7089564E67AEF7A95F1F76A95FB
:1000F000D9F70895442341F413951A3029F41127B0
:1001000023952A3009F422271895442331F0AA2395
:1001100011F0AA270AC0A1E008C0022F8AE0089FB8
:0C012000010E302D112441E0AA27189593
:00000001FF
