:020000020000FC
:100000000FE50DBF02E00EBF0FEF0ABB04BB0027D8
:1000100007BB0FEF08BB1127222756B3652F6F7060
:10002000362F652F62956F70462F022F11D0012F4A
:1000300018D020D0241719F4131709F4EECF139514
:100040001A3098F3112723952A3078F32227EDCF21
:100050000A3008F00027F2E0E0E0E00F04910BBB6B
:1000600008950A3008F00027F2E0E0E0E00F049184
:1000700005BB089575E084E696E99A95F1F78A95AF
:08008000D9F77A95C1F7089544
:0A0200003F065B4F666D7D077F6FC0
:00000001FF
